:080B9D00022C000002280000F8
:090BE900D2A0C2A1D2A2C2A32233
:090BF200C2A0D2A1C2A2D2A3222A
:090BFB00C2A0C2A1D2A2C2A32231
:090C0400D2A0C2A1C2A2C2A32227
:090C0D00C2A0C2A1C2A2C2A3222E
:050C1600D2A0C2A122E2
:050C1B00D2A2C2A322D9
:100B6600C3EF9DEE9C5004D2A48002C2A4C3EB95B1
:0C0B76001DEA951C5003D2A522C2A52246
:0F0BDA00120C16120C1B85241C85251D020B66A0
:10080000E52D452C70190527E52770020526C394B0
:1008100032E52694004008052DE52D7002052CE5F3
:100820002D6401452C70190529E52970020528C39E
:100830009414E52894004008052DE52D7002052C40
:10084000E52D6402452C7019052BE52B7002052A55
:10085000C3941EE52A94004008052DE52D7002057D
:100860002CE52D6403452C701BE529152970021514
:1008700028D3E5299400E52894005008052DE52D9E
:100880007002052CE52D6404452C701BE527152707
:1008900070021526D3E5279400E52694005008053C
:1008A0002DE52D7002052CE52D6405452C701905EC
:1008B00029E52970020528C39414E528940040080E
:1008C000052DE52D7002052CE52D6406452C701BC9
:1008D000E52B152B7002152AD3E52B9400E52A94FD
:1008E000005008052DE52D7002052CE52FB4010BF5
:1008F000052DE52D7002052CE4F52FE52D452C7016
:1009000003120BE9E52D6401452C7003120BFBE586
:100910002D6402452C7003120BE9E52D6403452C70
:100920007003120BFBE52D6404452C7003120BE9D8
:10093000E52D6405452C7003120BFBE52D6406457F
:100940002C7003120BE9E52D6407452C7003120C83
:020950000D2276
:050C20008F3202080004
:080BA500020C00000208000030
:100BCA00758901758CFC758A18D2AFD2A9D28C228C
:100AF400E50B6401450A7007F50AF50B120AB4E523
:100B04000F6401450E7009F50EF50F7F0A120C20D3
:100B1400E509640145087009F508F509AF30120BC1
:020B240082222B
:100BB700120BCAE4F580F590F5A0D2A4D2A5120ACB
:030BC700F480FBBC
:03000B000209DE09
:1009DE00C0E0C0F0C0D075D000C000C004C005C0DB
:1009EE0006C007758CFC758A18050DE50D7002059D
:1009FE000CAE0CFF7C007D0A120A5FED4C7005F503
:100A0E000A750B01AE0CAF0D7C007D64120A5FED12
:100A1E004C7005F50E750F01AE0CAF0D7C017DF41B
:100A2E00120A5FED4C7005F510751101AE0CAF0D8D
:100A3E007C037DE8120A5FED4C7005F5087509011F
:100A4E00D007D006D005D004D000D0D0D0F0D0E062
:010A5E003265
:100B2600E4FDFCC3ED9FEC9E5015E4FBFA0BBB0005
:0F0B3600010AEB640B4A70F50DBD00010C80E461
:010B4500228D
:100B4600E4FDFCC3ED9FEC9E5015E4FBFA0BBB00E5
:0F0B5600010AEB646E4A70F50DBD00010C80E4DE
:010B6500226D
:090BAD00013100013000012F00AC
:100AB40030970AE52E7006753001752F0130960ABD
:100AC400E5317006753002752F01A297E433652E67
:100AD4006006A297E433F52EA296E43365316006EE
:100AE400A296E433F531209706209603E4F53022EC
:100B8200EF7002D280BF0106C280D2818002C28190
:0B0B9200BF0205C280D28222C2822274
:03000000020952A0
:0C095200787FE4F6D8FD75813202099927
:100A5F00BC000BBE0029EF8DF084FFADF022E4CC7B
:100A6F00F875F008EF2FFFEE33FEEC33FCEE9DEC44
:100A7F00984005FCEE9DFE0FD5F0E9E4CEFD22ED8A
:100A8F00F8F5F0EE8420D21CFEADF075F008EF2FD4
:100A9F00FFED33FD4007985006D5F0F222C398FDC5
:050AAF000FD5F0EA2262
:10095E00020BB7E493A3F8E493A34003F68001F2ED
:10096E0008DFF48029E493A3F85407240CC8C3339A
:10097E00C4540F4420C8834004F456800146F6DF69
:10098E00E4800B0102040810204080900B9DE47E51
:10099E00019360BCA3FF543F30E509541FFEE4935E
:1009AE00A360010ECF54C025E060A840B8E493A325
:1009BE00FAE493A3F8E493A3C8C582C8CAC583CA50
:1009CE00F0A3C8C582C8CAC583CADFE9DEE780BE08
:010BB600003E
:00000001FF
