:080C5000022C00000228000044
:090CC700D2A0C2A1D2A2C2A32254
:090CD000C2A0D2A1C2A2D2A3224B
:090CD900C2A0C2A1D2A2C2A32252
:090CE200D2A0C2A1C2A2C2A32249
:090CEB00C2A0C2A1C2A2C2A32250
:050CF400D2A0C2A12204
:050CF900D2A2C2A322FB
:100C6F00C3EF9DEE9C5004D2A48002C2A4C3EB95A7
:0C0C7F001DEA951C5003D2A522C2A5223C
:0F0CAE00120CF4120CF985241C85251D020C6F05
:10080000E52D452C70190527E52770020526C394B0
:1008100032E52694004008052DE52D7002052CE5F3
:100820002D6401452C70190529E52970020528C39E
:100830009414E52894004008052DE52D7002052C40
:10084000E52D6402452C7019052BE52B7002052A55
:10085000C3941EE52A94004008052DE52D7002057D
:100860002CE52D6403452C701BE529152970021514
:1008700028D3E5299400E52894005008052DE52D9E
:100880007002052CE52D6404452C701BE527152707
:1008900070021526D3E5279400E52694005008053C
:1008A0002DE52D7002052CE52D6405452C701905EC
:1008B00029E52970020528C39414E528940040080E
:1008C000052DE52D7002052CE52D6406452C701BC9
:1008D000E52B152B7002152AD3E52B9400E52A94FD
:1008E000005008052DE52D7002052CE52FB40110F0
:1008F000E52D30E00B052DE52D7002052CE4F52FDC
:10090000E52D452C7003120CC7E52D6401452C70B4
:1009100003120CD9E52D6402452C7003120CC7E5B7
:100920002D6403452C7003120CD9E52D6404452C6D
:100930007003120CC7E52D6405452C7003120CD909
:10094000E52D6406452C7003120CC7E52D640745A0
:070950002C7003120CEB22D6
:050CFE008F3502080023
:080C5800020C0000020800007C
:100C9E00758901758CFC758A18D2AFD2A9D28C22B7
:100B4F00E50B6401450A700EF50AF50B120B06AFA3
:100B5F00387E00120AB9E50F6401450E7009F50ED3
:100B6F00F50F7F0A120CFEE5116401451070031298
:100B7F000BEFE509640145087009F508F509AF3079
:040B8F00120BC9225A
:100C8B00120C9EE4F580F590F5A0D2A4D2A5120B20
:030C9B004F80FB8C
:03000B000209E304
:1009E300C0E0C0F0C0D075D000C000C004C005C0D6
:1009F30006C007758CFC758A18050DE50D70020598
:100A03000CAE0CFF7C007D0A120A64ED4C7005F5F8
:100A13000A750B01AE0CAF0D7C007D64120A64ED08
:100A23004C7005F50E750F01AE0CAF0D7C017DF416
:100A3300120A64ED4C7005F510751101AE0CAF0D83
:100A43007C037DE8120A64ED4C7005F50875090115
:100A5300D007D006D005D004D000D0D0D0F0D0E05D
:010A63003260
:100C1000E4FDFCC3ED9FEC9E5015E4FBFA0BBB001A
:0F0C2000010AEB640B4A70F50DBD00010C80E476
:010C2F0022A2
:100C3000E4FDFCC3ED9FEC9E5015E4FBFA0BBB00FA
:0F0C4000010AEB646E4A70F50DBD00010C80E4F3
:010C4F002282
:090C6000013100013000012F00F8
:100B060030970AE52E7006753001752F0130960A6A
:100B1600E5317006753002752F01A297E433652E14
:100B26006006A297E433F52EA296E433653160069B
:100B3600A296E433F53120970D20960AE538C39442
:090B4600284003E4F5307F002291
:0A0CBD003F065B4F666D7D077F6FF9
:050C6900033200000051
:040AB900AB07AA06D7
:100ABD00C3EB9464EA9400503F7C007D0A120A64F3
:100ACD008F36AE02AF037C007D0A120A648D37D2D9
:100ADD00A6C2A7E536900CBD93F4F5807FF47E0198
:100AED00120C10C2A6D2A7E537900CBD93F4F58079
:080AFD007FF47E01120C1000D1
:010B050022CD
:100BC900EF7002D2B0BF0106C2B0D2B18002C2B189
:100BD900BF0206C2B0D2B28002C2B2BF0305C2B020
:060BE900D2B322C2B322C8
:100B9300E4FFFED292C2900000C2910000D2910005
:100BA30000C2910000D2910000C2910000EE25E046
:100BB300FE3092010ED2910000C29100000FBF08D7
:050BC300ECD290AF062A
:010BC800220A
:100BEF00E4FF120B93EF75F032A4FFAEF07C007DA3
:100BFF00FF120A648F38E538C39428500375300309
:010C0F0022C2
:030000000209579B
:0C095700787FE4F6D8FD75813802099E17
:100A6400BC000BBE0029EF8DF084FFADF022E4CC76
:100A7400F875F008EF2FFFEE33FEEC33FCEE9DEC3F
:100A8400984005FCEE9DFE0FD5F0E9E4CEFD22ED85
:100A9400F8F5F0EE8420D21CFEADF075F008EF2FCF
:100AA400FFED33FD4007985006D5F0F222C398FDC0
:050AB4000FD5F0EA225D
:10096300020C8BE493A3F8E493A34003F68001F213
:1009730008DFF48029E493A3F85407240CC8C33395
:10098300C4540F4420C8834004F456800146F6DF64
:10099300E4800B0102040810204080900C50E47E98
:1009A300019360BCA3FF543F30E509541FFEE49359
:1009B300A360010ECF54C025E060A840B8E493A320
:1009C300FAE493A3F8E493A3C8C582C8CAC583CA4B
:1009D300F0A3C8C582C8CAC583CADFE9DEE780BE03
:010C6E000085
:00000001FF
