:080C5200023500000231000030
:090D6800D2A0C2A1D2A2C2A322B2
:090D7100C2A0D2A1C2A2D2A322A9
:090D7A00C2A0C2A1D2A2C2A322B0
:090D8300D2A0C2A1C2A2C2A322A7
:090D8C00C2A0C2A1C2A2C2A322AE
:050D9500D2A0C2A12262
:050D9A00D2A2C2A32259
:0C0D2200F525F5267F057B05FAFDFCFE9B
:0D0D2E008C218D228E1A8F1B8A148B1522AA
:0F0D4F00120D95120D9A852D25852E26020D2E3B
:10080000E536453570190530E5307002052FC39483
:1008100032E52F940040080536E53670020535E5CF
:10082000366401453570190532E53270020531C371
:100830009414E531940040080536E536700205351C
:10084000E5366402453570190534E5347002053328
:10085000C3941EE533940040080536E53670020562
:1008600035E53664034535701BE5321532700215E7
:1008700031D3E5329400E531940050080536E53671
:1008800070020535E53664044535701BE5301530DA
:100890007002152FD3E5309400E52F940050080521
:1008A00036E53670020535E53664054535701905BF
:1008B00032E53270020531C39414E53194004008EA
:1008C0000536E53670020535E53664064535701B9C
:1008D000E534153470021533D3E5349400E53394D0
:1008E0000050080536E53670020535E538B40110CC
:1008F000E53630E00B0536E53670020535E4F538AF
:10090000E53645357003120D22E536640145357034
:1009100009F525F5267F14120D28E53664024535C4
:100920007003120D22E53664034535700FF525F589
:10093000267B05FAFDFC7F14FE120D2EE5366404BD
:1009400045357003120D22E53664054535700FF507
:1009500025F5267B05FAFDFC7F14FE120D2EE536EB
:10096000640645357003120D22E53664074535707F
:100970000FF525F5267B14FAFDFC7F14FE120D2ED3
:010980002254
:050D9F008F1E02080098
:100C5A00020E000002080000021A00140214001416
:080C6A00020A0000021C000058
:100D0800758911758CFC758A18758DFE758B0CD2DA
:0A0D1800AFD2A9D28CD2ABD28E224A
:100BD800E50D6401450C700EF50CF50D120B8FAF89
:100BE8003E7E00120B42E511640145107009F510B4
:100BF800F5117F0A120D9FE5136401451270031267
:100C08000CA7E509640145087009F508F509AF392D
:040C1800120C812217
:100D3B00120D08E4F580F590F5A0F5A0120D6812E0
:040D4B000BD880FB46
:03000B00020A0DD9
:100A0D00C0E0C0F0C0D075D000C000C004C005C0AB
:100A1D0006C007758CFC758A18050FE50F70020569
:100A2D000EAE0EFF7C007D0A120AEDED4C7005F541
:100A3D000C750D01AE0EAF0F7C007D64120AEDED4D
:100A4D004C7005F510751101AE0EAF0F7C017DF4E4
:100A5D00120AEDED4C7005F512751301AE0EAF0FC8
:100A6D007C037DE8120AEDED4C7005F50875090162
:100A7D00D007D006D005D004D000D0D0D0F0D0E033
:010A8D003236
:03001B00020A8E48
:100A8E00C0E0C0D0758DFE758B0C050BE50B7002AA
:100A9E00050A051DE51D7002051CD3E50B951BE52A
:100AAE000A951A4002D2A4C3E50B9414E50A9400E9
:100ABE004008750A00750B00C2A4D3E51D9515E517
:100ACE001C95144002D2A5C3E51D9414E51C940098
:0F0ADE004008750A00750B00C2A5D0D0D0E032D9
:100CC800E4FDFCC3ED9FEC9E5015E4FBFA0BBB0062
:0F0CD800010AEB640B4A70F50DBD00010C80E4BE
:010CE70022EA
:100CE800E4FDFCC3ED9FEC9E5015E4FBFA0BBB0042
:0F0CF800010AEB646E4A70F50DBD00010C80E43B
:010D070022C9
:090C7200013A00013900013800CB
:100B8F0030970AE537700675390175380130960AC6
:100B9F00E53A7006753902753801A297E433653767
:100BAF006006A297E433F537A296E433653A600600
:100BBF00A296E433F53A20970D20960AE53EC394AA
:090BCF00284003E4F5397F0022FF
:0A0D5E003F065B4F666D7D077F6F57
:050C7B00033B00000036
:040B4200AB07AA064D
:100B4600C3EB9464EA9400503F7C007D0A120AEDE0
:100B56008F1FAE02AF037C007D0A120AED8D20D2F4
:100B6600A6C2A7E51F900D5E93F4F5807FF47E0183
:100B7600120CC8C2A6D2A7E520900D5E93F4F580AC
:080B86007FF47E01120CC8008F
:010B8E002244
:100C8100EF7002D2B0BF0106C2B0D2B18002C2B1D0
:100C9100BF0206C2B0D2B28002C2B2BF0305C2B067
:060CA100D2B322C2B3220F
:100C1C00E4FFFED292C2900000C2910000D291007B
:100C2C0000C2910000D2910000C2910000EE25E0BC
:100C3C00FE3092010ED2910000C29100000FBF084D
:050C4C00ECD290AF06A0
:010C51002280
:100CA700E4FF120C1CEF75F032A4FFAEF07C007D60
:100CB700FF120AED8F3EE53EC394285003753903B2
:010CC700220A
:0300000002098171
:0C098100787FE4F6D8FD75813E0209C8BD
:100AED00BC000BBE0029EF8DF084FFADF022E4CCED
:100AFD00F875F008EF2FFFEE33FEEC33FCEE9DECB6
:100B0D00984005FCEE9DFE0FD5F0E9E4CEFD22EDFB
:100B1D00F8F5F0EE8420D21CFEADF075F008EF2F45
:100B2D00FFED33FD4007985006D5F0F222C398FD36
:050B3D000FD5F0EA22D3
:10098D00020D3BE493A3F8E493A34003F68001F238
:10099D0008DFF48029E493A3F85407240CC8C3336B
:1009AD00C4540F4420C8834004F456800146F6DF3A
:1009BD00E4800B0102040810204080900C52E47E6C
:1009CD00019360BCA3FF543F30E509541FFEE4932F
:1009DD00A360010ECF54C025E060A840B8E493A3F6
:1009ED00FAE493A3F8E493A3C8C582C8CAC583CA21
:1009FD00F0A3C8C582C8CAC583CADFE9DEE780BED9
:010C80000073
:00000001FF
