:080C4B00022C00000228000049
:090CC200D2A0C2A1D2A2C2A32259
:090CCB00C2A0D2A1C2A2D2A32250
:090CD400C2A0C2A1D2A2C2A32257
:090CDD00D2A0C2A1C2A2C2A3224E
:090CE600C2A0C2A1C2A2C2A32255
:050CEF00D2A0C2A12209
:050CF400D2A2C2A32200
:100C6A00C3EF9DEE9C5004D2A48002C2A4C3EB95AC
:0C0C7A001DEA951C5003D2A522C2A52241
:0F0CA900120CEF120CF485241C85251D020C6A19
:10080000E52D452C70190527E52770020526C394B0
:1008100032E52694004008052DE52D7002052CE5F3
:100820002D6401452C70190529E52970020528C39E
:100830009414E52894004008052DE52D7002052C40
:10084000E52D6402452C7019052BE52B7002052A55
:10085000C3941EE52A94004008052DE52D7002057D
:100860002CE52D6403452C701BE529152970021514
:1008700028D3E5299400E52894005008052DE52D9E
:100880007002052CE52D6404452C701BE527152707
:1008900070021526D3E5279400E52694005008053C
:1008A0002DE52D7002052CE52D6405452C701905EC
:1008B00029E52970020528C39414E528940040080E
:1008C000052DE52D7002052CE52D6406452C701BC9
:1008D000E52B152B7002152AD3E52B9400E52A94FD
:1008E000005008052DE52D7002052CE52FB4010BF5
:1008F000052DE52D7002052CE4F52FE52D452C7016
:1009000003120CC2E52D6401452C7003120CD4E5D2
:100910002D6402452C7003120CC2E52D6403452C96
:100920007003120CD4E52D6404452C7003120CC224
:10093000E52D6405452C7003120CD4E52D640645A5
:100940002C7003120CC2E52D6407452C7003120CA9
:02095000E6229D
:050CF9008F3502080028
:080C5300020C00000208000081
:100C9900758901758CFC758A18D2AFD2A9D28C22BC
:100B4A00E50B6401450A700EF50AF50B120B01AFAD
:100B5A00387E00120AB4E50F6401450E7009F50EDD
:100B6A00F50F7F0A120CF9E51164014510700312A2
:100B7A000BEAE509640145087009F508F509AF3083
:040B8A00120BC42264
:100C8600120C99E4F580F590F5A0D2A4D2A5120B2A
:030C96004A80FB96
:03000B000209DE09
:1009DE00C0E0C0F0C0D075D000C000C004C005C0DB
:1009EE0006C007758CFC758A18050DE50D7002059D
:1009FE000CAE0CFF7C007D0A120A5FED4C7005F503
:100A0E000A750B01AE0CAF0D7C007D64120A5FED12
:100A1E004C7005F50E750F01AE0CAF0D7C017DF41B
:100A2E00120A5FED4C7005F510751101AE0CAF0D8D
:100A3E007C037DE8120A5FED4C7005F5087509011F
:100A4E00D007D006D005D004D000D0D0D0F0D0E062
:010A5E003265
:100C0B00E4FDFCC3ED9FEC9E5015E4FBFA0BBB001F
:0F0C1B00010AEB640B4A70F50DBD00010C80E47B
:010C2A0022A7
:100C2B00E4FDFCC3ED9FEC9E5015E4FBFA0BBB00FF
:0F0C3B00010AEB646E4A70F50DBD00010C80E4F8
:010C4A002287
:090C5B00013100013000012F00FD
:100B010030970AE52E7006753001752F0130960A6F
:100B1100E5317006753002752F01A297E433652E19
:100B21006006A297E433F52EA296E43365316006A0
:100B3100A296E433F53120970D20960AE538C39447
:090B4100284003E4F5307F002296
:0A0CB8003F065B4F666D7D077F6FFE
:050C6400033200000056
:040AB400AB07AA06DC
:100AB800C3EB9464EA9400503F7C007D0A120A5FFD
:100AC8008F36AE02AF037C007D0A120A5F8D37D2E3
:100AD800A6C2A7E536900CB893F4F5807FF47E01A2
:100AE800120C0BC2A6D2A7E537900CB893F4F58088
:080AF8007FF47E01120C0B00DB
:010B000022D2
:100BC400EF7002D2B0BF0106C2B0D2B18002C2B18E
:100BD400BF0206C2B0D2B28002C2B2BF0305C2B025
:060BE400D2B322C2B322CD
:100B8E00E4FFFED292C2900000C2910000D291000A
:100B9E0000C2910000D2910000C2910000EE25E04B
:100BAE00FE3092010ED2910000C29100000FBF08DC
:050BBE00ECD290AF062F
:010BC300220F
:100BEA00E4FF120B8EEF75F032A4FFAEF07C007DAD
:100BFA00FF120A5F8F38E538C39428500375300313
:010C0A0022C7
:03000000020952A0
:0C095200787FE4F6D8FD75813802099921
:100A5F00BC000BBE0029EF8DF084FFADF022E4CC7B
:100A6F00F875F008EF2FFFEE33FEEC33FCEE9DEC44
:100A7F00984005FCEE9DFE0FD5F0E9E4CEFD22ED8A
:100A8F00F8F5F0EE8420D21CFEADF075F008EF2FD4
:100A9F00FFED33FD4007985006D5F0F222C398FDC5
:050AAF000FD5F0EA2262
:10095E00020C86E493A3F8E493A34003F68001F21D
:10096E0008DFF48029E493A3F85407240CC8C3339A
:10097E00C4540F4420C8834004F456800146F6DF69
:10098E00E4800B0102040810204080900C4BE47EA2
:10099E00019360BCA3FF543F30E509541FFEE4935E
:1009AE00A360010ECF54C025E060A840B8E493A325
:1009BE00FAE493A3F8E493A3C8C582C8CAC583CA50
:1009CE00F0A3C8C582C8CAC583CADFE9DEE780BE08
:010C6900008A
:00000001FF
