:100F9600022A0000022600000220000002220000B1
:09113100D2A0C2A1D2A2C2A322E5
:09113A00C2A0D2A1C2A2D2A322DC
:09114300C2A0C2A1D2A2C2A322E3
:09114C00D2A0C2A1C2A2C2A322DA
:09115500C2A0C2A1C2A2C2A322E1
:05115E00D2A0C2A12295
:05116300D2A2C2A3228C
:0C10DE00F533F5347F057B05FAFDFCFEC0
:0D10EA008C2F8D308E1C8F1D8A168B1722C7
:10100700AC06AD07AE10AF111209C5AC06AD07E4CB
:1010170012090B7B337A3379A3784112080012093E
:10102700448E208F21E5212523F523E5203522F560
:02103700222273
:0F110B0012115E121163853B33853C340210EAEA
:100BCB00E52B452A70190525E52570020524C394EC
:100BDB0032E52494004008052BE52B7002052AE52D
:100BEB002B6401452A70190527E52770020526C3DA
:100BFB009414E52694004008052BE52B7002052A7A
:100C0B00E52B6402452A70190529E5297002052890
:100C1B00C3941EE52894004008052BE52B700205B4
:100C2B002AE52B6403452A701BE52715277002154F
:100C3B0026D3E5279400E52694005008052BE52BD9
:100C4B007002052AE52B6404452A701BE525152542
:100C5B0070021524D3E5259400E524940050080573
:100C6B002BE52B7002052AE52B6405452A70190527
:100C7B0027E52770020526C39414E5269400400847
:100C8B00052BE52B7002052AE52B6406452A701B04
:100C9B00E529152970021528D3E5299400E5289438
:100CAB00005008052BE52B7002052AE53EB4011018
:100CBB00E52B30E00B052BE52B7002052AE4F53E06
:100CCB00E52B452A70031210DEE52B6401452A70D3
:100CDB0009F533F5347F141210E4E52B6402452A31
:100CEB0070031210DEE52B6403452A700FF533F504
:100CFB00347B05FAFDFC7F14FE1210EAE52B64042D
:100D0B00452A70031210DEE52B6405452A700FF59A
:100D1B0033F5347B05FAFDFC7F14FE1210EAE52B4C
:100D2B006406452A70031210DEE52B6407452A7012
:100D3B000FF533F5347B14FAFDFC7F14FE1210EA29
:010D4B002285
:100A3A00E52B452A701E852224852325C3E52594A6
:100A4A0032E5249400400D052BE52B7002052AE4BB
:100A5A00F522F523E52B6401452A701E8522268599
:100A6A002327C3E5279414E5269400400D052BE5BA
:100A7A002B7002052AE4F522F523E52B6402452AA8
:100A8A00701E852228852329C3E529941EE528940A
:100A9A0000400D052BE52B7002052AE4F522F5230B
:100AAA00E52B6403452A7018D3E5279523E5269597
:100ABA0022500D052BE52B7002052AE4F522F523B9
:100ACA00E52B6404452A7018D3E5259523E524957A
:100ADA0022500D052BE52B7002052AE4F522F52399
:100AEA00E52B6405452A7019852226852327C3E547
:100AFA00279414E52694004008052BE52B7002057F
:100B0A002AE52B6406452A7018D3E5299523E5289A
:100B1A009522500D052BE52B7002052AE4F522F5E6
:100B2A0023E53EB40114E52B30E00F052BE52B70CD
:100B3A0002052AE4F522F523F53EE52B452A700342
:100B4A001210DEE52B6401452A700FF533F5347B6C
:100B5A0005FAFDFC7F14FE1210EAE52B6402452A11
:100B6A0070031210DEE52B6403452A700FF533F586
:100B7A00347B05FAFDFC7F14FE1210EAE52B6404AF
:100B8A00452A70031210DEE52B6405452A700FF51D
:100B9A0033F5347B05FAFDFC7F14FE1210EAE52BCF
:100BAA006406452A70031210DEE52B6407452A7095
:100BBA000FF533F5347B14FAFDFC7F14FE1210EAAC
:010BCA002208
:051168008F2C020BCBEF
:100FA600020E000002080000021C000A0216000AD7
:0C0FB600020A0000021E000002100000F1
:1010C000758911758CFC758A18758DFE758B0CD21F
:0E10D000AFD2A9D28CD2ABD28ED2A8D28822B7
:100F4E00E50D6401450C7007F50CF50D120F05E566
:100F5E0013640145127009F512F5137F0A12116818
:100F6E00E51564014514700EF514F51512105FAFFA
:100F7E00447E00120EB8E509640145087009F508B3
:080F8E00F509AF3F12103922F2
:1010F7001210C0E4F580F590F5A0F5B01211311289
:041107000F4E80FB0C
:03000B00020DD80B
:100DD800C0E0C0F0C0D075D000C000C004C005C0DD
:100DE80006C007758CFC758A18050FE50F7002059B
:100DF8000EAE0EFF7C007D0A1209D7ED4C7005F58A
:100E08000C750D01AE0EAF0F7C007D641209D7ED95
:100E18004C7005F512751301AE0EAF0F7C017DF411
:100E28001209D7ED4C7005F514751501AE0EAF0F0C
:100E38007C037DE81209D7ED4C7005F508750901AA
:100E4800D007D006D005D004D000D0D0D0F0D0E064
:010E58003267
:03001B00020E5979
:100E5900C0E0C0D0758DFE758B0C050BE50B7002DB
:100E6900050A051FE51F7002051EC3E50B9414E56D
:100E79000A94004008750A00750B00C2A4C3E50B6B
:100E8900951DE50A951C4002D2A4C3E51F9414E5FB
:100E99001E94004008750A00750B00C2A5C3E51F22
:0F0EA9009517E51E95164002D2A5D0D0D0E032A5
:0300030002111ACD
:0D111A00C0E00511E51170020510D0E032B3
:10108000E4FDFCC3ED9FEC9E5015E4FBFA0BBB00A6
:0F109000010AEB640B4A70F50DBD00010C80E402
:01109F00222E
:1010A000E4FDFCC3ED9FEC9E5015E4FBFA0BBB0086
:0F10B000010AEB646E4A70F50DBD00010C80E47F
:0110BF00220E
:090FC200014000013F00013E0066
:100F050030970AE53D7006753F01753E0130960A3A
:100F1500E5407006753F02753E01A297E433653DD5
:100F25006006A297E433F53DA296E433654060067A
:100F3500A296E433F54020970D20960AE544C39424
:090F4500284003E4F53F7F00227F
:0A1127003F065B4F666D7D077F6F8A
:050FCB000341000000DD
:040EB800AB07AA06D4
:100EBC00C3EB9464EA9400503F7C007D0A1209D77E
:100ECC008F2DAE02AF037C007D0A1209D78D2ED276
:100EDC00A6C2A7E52D90112793F4F5807FF47E012F
:100EEC00121080C2A6D2A7E52E90112793F4F5809C
:080EFC007FF47E01121080005A
:010F040022CA
:10103900EF7002D2B0BF0106C2B0D2B18002C2B114
:10104900BF0206C2B0D2B28002C2B2BF0305C2B0AB
:06105900D2B322C2B32253
:100FD100E4FFFED292C2900000C2910000D29100C3
:100FE10000C2910000D2910000C2910000EE25E004
:100FF100FE3092010ED2910000C29100000FBF0895
:05100100ECD290AF06E7
:0110060022C7
:10105F00E4FF120FD1EF75F032A4FFAEF07C007DEC
:10106F00FF1209D78F44E544C394285003753F03FB
:01107F00224E
:10080000EC4D6011E8497017ED33EC3304600DE4F2
:10081000FCFFFEFD22E933E8330470F80209B01250
:10082000097B58046009E4CC248150062850090251
:1008300009BA2840030209B7C0E0EB4A7044B98006
:1008400006D0E0FB0209A6EF4E701CBD8008EBFF4E
:10085000EAFEE9FD80EBE98DF0A4FEE5F00208E98F
:10086000E9CDF9EAFEEBFFEF89F0A4FCE5F0CE89D3
:10087000F0A42EFFE435F0CD89F0A42DFEE435F090
:100880008067EF4E7005BD80D780C3EF8BF0A4ACBE
:10089000F0EE8BF0A42CFCE435F0F8EF8AF0A42CF9
:1008A000E5F038FCE433CB8DF0A42CFCE5F03BF80C
:1008B000EE8AF0A42CFCE5F038F8E433CF89F0A4FC
:1008C0002CFCE5F038CF3400CE89F0A42FFFE5F002
:1008D0003EFEE433C98DF0A42EFEE5F039CD8AF05A
:1008E000A42FFFE5F03EFEE43DFD33D0E0FB5007D2
:1008F0000BBB000F0209BAEC2CFCEF33FFEE33FE0A
:06090000ED33FD02099237
:1009060075F020800E75F010800575F0087D007E6C
:10091600007F003392D530D503120A2CEC334010F9
:10092600EF33FFEE33FEED33FDEC33FCD5F0ED2275
:0E093600E5F0247EA2D513CC92E7CDCEFF22B1
:10094400EDD2E7CD33EC3392D524814006E4FFFEAB
:10095400FDFC22FCE4CFCECDCC24E0501174FF800A
:10096400EDC3CC13CCCD13CDCE13CECF13CF0470A7
:07097400F030D5DE020A2C71
:10097B00E9D2E7C933E833F892D5EDD2E7CD33ECC2
:07098B0033FC5002B2D5223B
:10099200EC30E7100FBF000C0EBE00080DBD0004C6
:1009A2000BEB6014A2D5EB13FCED92E7FD2274FF72
:1009B200FCFDFEFF22E480F8A2D574FF13FC7D80CB
:0309C200E480EFDF
:03000000020D4CA2
:0C0D4C00787FE4F6D8FD758144020D9319
:1009C500EF8DF0A4A8F0CF8CF0A428CE8DF0A42E46
:0209D500FE2200
:1009D700BC000BBE0029EF8DF084FFADF022E4CC04
:1009E700F875F008EF2FFFEE33FEEC33FCEE9DECCD
:1009F700984005FCEE9DFE0FD5F0E9E4CEFD22ED13
:100A0700F8F5F0EE8420D21CFEADF075F008EF2F5C
:100A1700FFED33FD4007985006D5F0F222C398FD4D
:050A27000FD5F0EA22EA
:0E0A2C00C3E49FFFE49EFEE49DFDE49CFC22DB
:100D58000210F7E493A3F8E493A34003F68001F2AA
:100D680008DFF48029E493A3F85407240CC8C3339C
:100D7800C4540F4420C8834004F456800146F6DF6B
:100D8800E4800B0102040810204080900F96E47E56
:100D9800019360BCA3FF543F30E509541FFEE49360
:100DA800A360010ECF54C025E060A840B8E493A327
:100DB800FAE493A3F8E493A3C8C582C8CAC583CA52
:100DC800F0A3C8C582C8CAC583CADFE9DEE780BE0A
:010FD0000020
:00000001FF
